:020000020000FC
:100000000C94B1000C94B0000C94B0000C94B000AF
:100010000C94B0000C94B0000C94B0000C94B000A0
:100020000C94B0000C94B0000C94B0000C94B00090
:100030000C94B0000C94B0000C94B0000C94B00080
:100040000C94B0000C94B0000C94B0000C94B00070
:100050000C94B0000C94B0000C94B0000C94B00060
:100060000C94B0000C94B00000E00093C50007E6CB
:100070000093C40006E00093C20000E10093C100B9
:1000800010E854E00FEF0AB900EF0BB940D0012D92
:10009000602F6078603809F015C05A95702F7F770F
:1000A000872F803031F108E01F601095012B0BB9CC
:1000B0004BD00B7F0BB948D004600BB945D08A9563
:1000C000B1F0F7CF5A95702F7F77872F803089F066
:1000D00000E01F601095012B0BB936D00B7F0BB9D8
:1000E00033D004600BB930D08A9509F0F7CF1F6088
:1000F00010951695503051F0533021F0523021F0C8
:10010000032DC6CF022DC4CF042DC2CFB9CF00918D
:10011000C00007FFFCCF0090C600102C0091C0006B
:1001200007FFFCCF0090C600202C0091C00007FF05
:10013000FCCF0090C600402C0091C00007FFFCCF10
:100140000090C600302C0895000029E236E94DE702
:100150004A95F1F73A95E1F72A95D1F7000008950D
:10016000189500E00093C1003FEF3DBF38E03EBF6F
:0801700030E000E00C943400C3
:00000001FF
