:020000020000FC
:100000000C94C9000C94C8000C94C8000C94C8004F
:100010000C94C8000C94C8000C94C8000C94C80040
:100020000C94C8000C94C8000C94C8000C94C80030
:100030000C94C8000C94C8000C94C8000C94C80020
:100040000C94C8000C94C8000C94C8000C94C80010
:100050000C94C8000C94C8000C94C8000C94C80000
:100060000C94C8000C94C8000FEF0AB908E00BB953
:1000700084E604600BB988D00B7F0BB985D08A95D4
:1000800009F0F7CF00E00093C50007E60093C40035
:1000900006E00093C20000E10093C10010E854E0C4
:1000A00000EF0BB948D070D063D0012D602F60787D
:1000B000603809F018C05A95702F7F77872F8030ED
:1000C00061F108E01F601095012B0BB95DD050D095
:1000D00004600BB959D04CD00B7F0BB955D048D028
:1000E0008A95C9F0F5CF5A95702F7F77872F80308A
:1000F000A1F000E01F601095012B0BB945D038D05E
:1001000004600BB941D034D00B7F0BB93DD030D057
:100110008A9509F0F5CF1F6010951695503051F073
:10012000533021F0523021F0032DC0CF022DBECF2D
:10013000042DBCCFB3CF0091C00007FFFCCF0090CF
:10014000C600102C0091C00007FFFCCF0090C60035
:10015000202C0091C00007FFFCCF0090C600402C6F
:100160000091C00007FFFCCF0090C600302C08951E
:10017000000029E236E94DE74A95F1F73A95E1F7B3
:100180002A95D1F70000089545E04A95F1F70895C2
:10019000189500E00093C1003FEF3DBF38E03EBF3F
:0801A00030E000E00C94340093
:00000001FF
