:020000020000FC
:100000000C94B5000C94B4000C94B4000C94B4009F
:100010000C94B4000C94B4000C94B4000C94B40090
:100020000C94B4000C94B4000C94B4000C94B40080
:100030000C94B4000C94B4000C94B4000C94B40070
:100040000C94B4000C94B4000C94B4000C94B40060
:100050000C94B4000C94B4000C94B4000C94B40050
:100060000C94B4000C94B40000E00093C50007E6C3
:100070000093C40006E00093C20000E10093C100B9
:100080000FEF0AB910E854E000EF0BB930D008E0E8
:100090000BB969E604600BB953D00B7F0BB950D094
:1000A0006A9509F0F7CF012D5A95602F603089F0DD
:1000B00000E01F601095012B0BB942D004600BB912
:1000C0003FD00B7F0BB93CD06A9509F0F7CF1F608A
:1000D00010951695503051F0533021F0523021F0E8
:1000E000032DE2CF022DE0CF042DDECFCBCF009148
:1000F000C00007FFFCCF0090C600102C0091C0008C
:1001000007FFFCCF0090C600202C0091C00007FF25
:10011000FCCF0090C600402C0091C00007FFFCCF30
:100120000090C600302C0895000029E03EE142EE28
:100130004A95F1F73A95E1F72A95D1F700C008956D
:1001400045E04A95F1F70895000029E236E94DE7C8
:10015000000029E236E94DE74A95F1F73A95E1F7D3
:100160002A95D1F700000895189500E00093C1008A
:100170003FEF3DBF38E03EBF30E000E00C9434007C
:00000001FF
