:020000020000FC
:100000000C949D000C949C000C949C000C949C00FF
:100010000C949C000C949C000C949C000C949C00F0
:100020000C949C000C949C000C949C000C949C00E0
:100030000C949C000C949C000C949C000C949C00D0
:100040000C949C000C949C000C949C000C949C00C0
:100050000C949C000C949C000C949C000C949C00B0
:100060000C949C000C949C0065E075E085E0C0E871
:10007000B3E00FEF0AB91BB9062F902F9078903894
:1000800009F015C0A02FAF775A2F00E0CF61C095BF
:100090000C2B0BB945D0BA9501E00C2B0BB940D015
:1000A00000E00C2B0BB93CD05A95B1F0F5CFA02F46
:1000B000AF775A2F04E0CF61C0950C2B0BB930D02D
:1000C000BA9505E00C2B0BB92BD004E00C2B0BB927
:1000D00027D05A9509F0F5CFCF61C095C695B030BD
:1000E00031F0B23011F0082FC8CF072FC6CFFFCFA5
:1000F000000029E03EE142EE4A95F1F73A95E1F73A
:100100002A95D1F700C00895000025E13BE44CEBAF
:100110004A95F1F73A95E1F72A95D1F700C008958D
:10012000000029E236E94DE74A95F1F73A95E1F703
:100130002A95D1F700000895189500E00093C100BA
:100140003FEF3DBF38E03EBF30E000E00C943400AC
:00000001FF
